{
  "_format": "hh-sol-artifact-1",
  "contractName": "ChainlinkPriceFeedRouter",
  "sourceName": "contracts/ChainlinkPriceFeedRouter.sol",
  "abi": [
    {
      "inputs": [],
      "stateMutability": "nonpayable",
      "type": "constructor"
    },
    {
      "anonymous": false,
      "inputs": [
        {
          "indexed": true,
          "internalType": "address",
          "name": "previousOwner",
          "type": "address"
        },
        {
          "indexed": true,
          "internalType": "address",
          "name": "newOwner",
          "type": "address"
        }
      ],
      "name": "OwnershipTransferred",
      "type": "event"
    },
    {
      "inputs": [
        {
          "internalType": "string",
          "name": "firstTokenName",
          "type": "string"
        },
        {
          "internalType": "string",
          "name": "secondTokenName",
          "type": "string"
        }
      ],
      "name": "getPriceFeedAddress",
      "outputs": [
        {
          "internalType": "address",
          "name": "",
          "type": "address"
        }
      ],
      "stateMutability": "view",
      "type": "function"
    },
    {
      "inputs": [
        {
          "internalType": "string",
          "name": "firstTokenName",
          "type": "string"
        },
        {
          "internalType": "string",
          "name": "secondTokenName",
          "type": "string"
        }
      ],
      "name": "getPriceForPair",
      "outputs": [
        {
          "internalType": "int256",
          "name": "",
          "type": "int256"
        }
      ],
      "stateMutability": "view",
      "type": "function"
    },
    {
      "inputs": [],
      "name": "owner",
      "outputs": [
        {
          "internalType": "address",
          "name": "",
          "type": "address"
        }
      ],
      "stateMutability": "view",
      "type": "function"
    },
    {
      "inputs": [
        {
          "internalType": "string",
          "name": "firstTokenName",
          "type": "string"
        },
        {
          "internalType": "string",
          "name": "secondTokenName",
          "type": "string"
        },
        {
          "internalType": "address",
          "name": "pricefeedAddress",
          "type": "address"
        }
      ],
      "name": "registerPair",
      "outputs": [
        {
          "internalType": "bytes4",
          "name": "",
          "type": "bytes4"
        }
      ],
      "stateMutability": "nonpayable",
      "type": "function"
    },
    {
      "inputs": [],
      "name": "renounceOwnership",
      "outputs": [],
      "stateMutability": "nonpayable",
      "type": "function"
    },
    {
      "inputs": [
        {
          "internalType": "address",
          "name": "newOwner",
          "type": "address"
        }
      ],
      "name": "transferOwnership",
      "outputs": [],
      "stateMutability": "nonpayable",
      "type": "function"
    }
  ],
  "bytecode": "0x608060405234801561001057600080fd5b5060006100216100c460201b60201c565b9050806000806101000a81548173ffffffffffffffffffffffffffffffffffffffff021916908373ffffffffffffffffffffffffffffffffffffffff1602179055508073ffffffffffffffffffffffffffffffffffffffff16600073ffffffffffffffffffffffffffffffffffffffff167f8be0079c531659141344cd1fd0a4f28419497f9722a3daafe3b4186f6b6457e060405160405180910390a3506100cc565b600033905090565b611059806100db6000396000f3fe608060405234801561001057600080fd5b50600436106100625760003560e01c8063715018a6146100675780638da5cb5b14610071578063bc40d6431461008f578063d6cf9d44146100bf578063e1c9ec86146100ef578063f2fde38b1461011f575b600080fd5b61006f61013b565b005b610079610275565b6040516100869190610d75565b60405180910390f35b6100a960048036038101906100a49190610a61565b61029e565b6040516100b69190610d90565b60405180910390f35b6100d960048036038101906100d49190610aea565b6105bf565b6040516100e69190610d75565b60405180910390f35b61010960048036038101906101049190610aea565b610649565b6040516101169190610dab565b60405180910390f35b61013960048036038101906101349190610a38565b6106b0565b005b610143610859565b73ffffffffffffffffffffffffffffffffffffffff16610161610275565b73ffffffffffffffffffffffffffffffffffffffff16146101b7576040517f08c379a00000000000000000000000000000000000000000000000000000000081526004016101ae90610e06565b60405180910390fd5b600073ffffffffffffffffffffffffffffffffffffffff1660008054906101000a900473ffffffffffffffffffffffffffffffffffffffff1673ffffffffffffffffffffffffffffffffffffffff167f8be0079c531659141344cd1fd0a4f28419497f9722a3daafe3b4186f6b6457e060405160405180910390a360008060006101000a81548173ffffffffffffffffffffffffffffffffffffffff021916908373ffffffffffffffffffffffffffffffffffffffff160217905550565b60008060009054906101000a900473ffffffffffffffffffffffffffffffffffffffff16905090565b60006102a8610859565b73ffffffffffffffffffffffffffffffffffffffff166102c6610275565b73ffffffffffffffffffffffffffffffffffffffff161461031c576040517f08c379a000000000000000000000000000000000000000000000000000000000815260040161031390610e06565b60405180910390fd5b600073ffffffffffffffffffffffffffffffffffffffff168273ffffffffffffffffffffffffffffffffffffffff16141561038c576040517f08c379a000000000000000000000000000000000000000000000000000000000815260040161038390610e26565b60405180910390fd5b600073ffffffffffffffffffffffffffffffffffffffff1661043687878080601f016020809104026020016040519081016040528093929190818152602001838380828437600081840152601f19601f8201169050808301925050505050505086868080601f016020809104026020016040519081016040528093929190818152602001838380828437600081840152601f19601f820116905080830192505050505050506105bf565b73ffffffffffffffffffffffffffffffffffffffff161461048c576040517f08c379a000000000000000000000000000000000000000000000000000000000815260040161048390610de6565b60405180910390fd5b600061052087878080601f016020809104026020016040519081016040528093929190818152602001838380828437600081840152601f19601f8201169050808301925050505050505086868080601f016020809104026020016040519081016040528093929190818152602001838380828437600081840152601f19601f82011690508083019250505050505050610861565b90508260016000837bffffffffffffffffffffffffffffffffffffffffffffffffffffffff19167bffffffffffffffffffffffffffffffffffffffffffffffffffffffff1916815260200190815260200160002060006101000a81548173ffffffffffffffffffffffffffffffffffffffff021916908373ffffffffffffffffffffffffffffffffffffffff1602179055508091505095945050505050565b6000806105cc8484610861565b905060016000827bffffffffffffffffffffffffffffffffffffffffffffffffffffffff19167bffffffffffffffffffffffffffffffffffffffffffffffffffffffff1916815260200190815260200160002060009054906101000a900473ffffffffffffffffffffffffffffffffffffffff1691505092915050565b60008061065684846105bf565b9050600073ffffffffffffffffffffffffffffffffffffffff168173ffffffffffffffffffffffffffffffffffffffff1614156106975760009150506106aa565b60006106a282610894565b905080925050505b92915050565b6106b8610859565b73ffffffffffffffffffffffffffffffffffffffff166106d6610275565b73ffffffffffffffffffffffffffffffffffffffff161461072c576040517f08c379a000000000000000000000000000000000000000000000000000000000815260040161072390610e06565b60405180910390fd5b600073ffffffffffffffffffffffffffffffffffffffff168173ffffffffffffffffffffffffffffffffffffffff16141561079c576040517f08c379a000000000000000000000000000000000000000000000000000000000815260040161079390610dc6565b60405180910390fd5b8073ffffffffffffffffffffffffffffffffffffffff1660008054906101000a900473ffffffffffffffffffffffffffffffffffffffff1673ffffffffffffffffffffffffffffffffffffffff167f8be0079c531659141344cd1fd0a4f28419497f9722a3daafe3b4186f6b6457e060405160405180910390a3806000806101000a81548173ffffffffffffffffffffffffffffffffffffffff021916908373ffffffffffffffffffffffffffffffffffffffff16021790555050565b600033905090565b60008282604051602001610876929190610d51565b60405160208183030381529060405280519060200120905092915050565b6000806000806000808673ffffffffffffffffffffffffffffffffffffffff1663feaf968c6040518163ffffffff1660e01b815260040160a06040518083038186803b1580156108e357600080fd5b505afa1580156108f7573d6000803e3d6000fd5b505050506040513d601f19601f8201168201806040525081019061091b9190610b56565b945094509450945094508395505050505050919050565b600061094561094084610e77565b610e46565b90508281526020810184848401111561095d57600080fd5b610968848285610f56565b509392505050565b60008135905061097f81610fc7565b92915050565b60008151905061099481610fde565b92915050565b60008083601f8401126109ac57600080fd5b8235905067ffffffffffffffff8111156109c557600080fd5b6020830191508360018202830111156109dd57600080fd5b9250929050565b600082601f8301126109f557600080fd5b8135610a05848260208601610932565b91505092915050565b600081519050610a1d81610ff5565b92915050565b600081519050610a328161100c565b92915050565b600060208284031215610a4a57600080fd5b6000610a5884828501610970565b91505092915050565b600080600080600060608688031215610a7957600080fd5b600086013567ffffffffffffffff811115610a9357600080fd5b610a9f8882890161099a565b9550955050602086013567ffffffffffffffff811115610abe57600080fd5b610aca8882890161099a565b93509350506040610add88828901610970565b9150509295509295909350565b60008060408385031215610afd57600080fd5b600083013567ffffffffffffffff811115610b1757600080fd5b610b23858286016109e4565b925050602083013567ffffffffffffffff811115610b4057600080fd5b610b4c858286016109e4565b9150509250929050565b600080600080600060a08688031215610b6e57600080fd5b6000610b7c88828901610a23565b9550506020610b8d88828901610985565b9450506040610b9e88828901610a0e565b9350506060610baf88828901610a0e565b9250506080610bc088828901610a23565b9150509295509295909350565b610bd681610ece565b82525050565b610be581610ee0565b82525050565b610bf481610f0c565b82525050565b6000610c0582610ea7565b610c0f8185610ec3565b9350610c1f818560208601610f65565b80840191505092915050565b6000610c38602683610eb2565b91507f4f776e61626c653a206e6577206f776e657220697320746865207a65726f206160008301527f64647265737300000000000000000000000000000000000000000000000000006020830152604082019050919050565b6000610c9e601883610eb2565b91507f7072696365206665656420616c726561647920657869737400000000000000006000830152602082019050919050565b6000610cde602083610eb2565b91507f4f776e61626c653a2063616c6c6572206973206e6f7420746865206f776e65726000830152602082019050919050565b6000610d1e601483610eb2565b91507f496e76616c6964206665656420616464726573730000000000000000000000006000830152602082019050919050565b6000610d5d8285610bfa565b9150610d698284610bfa565b91508190509392505050565b6000602082019050610d8a6000830184610bcd565b92915050565b6000602082019050610da56000830184610bdc565b92915050565b6000602082019050610dc06000830184610beb565b92915050565b60006020820190508181036000830152610ddf81610c2b565b9050919050565b60006020820190508181036000830152610dff81610c91565b9050919050565b60006020820190508181036000830152610e1f81610cd1565b9050919050565b60006020820190508181036000830152610e3f81610d11565b9050919050565b6000604051905081810181811067ffffffffffffffff82111715610e6d57610e6c610f98565b5b8060405250919050565b600067ffffffffffffffff821115610e9257610e91610f98565b5b601f19601f8301169050602081019050919050565b600081519050919050565b600082825260208201905092915050565b600081905092915050565b6000610ed982610f16565b9050919050565b60007fffffffff0000000000000000000000000000000000000000000000000000000082169050919050565b6000819050919050565b600073ffffffffffffffffffffffffffffffffffffffff82169050919050565b6000819050919050565b600069ffffffffffffffffffff82169050919050565b82818337600083830152505050565b60005b83811015610f83578082015181840152602081019050610f68565b83811115610f92576000848401525b50505050565b7f4e487b7100000000000000000000000000000000000000000000000000000000600052604160045260246000fd5b610fd081610ece565b8114610fdb57600080fd5b50565b610fe781610f0c565b8114610ff257600080fd5b50565b610ffe81610f36565b811461100957600080fd5b50565b61101581610f40565b811461102057600080fd5b5056fea2646970667358221220dd4aef5a1ef6713a05f720a618ca0b3d017800ae17acbcd3a4e0bb2c73215a9464736f6c63430008000033",
  "linkReferences": {},
  "deployedLinkReferences": {}
}