{
  "_format": "hh-sol-artifact-1",
  "contractName": "ChainlinkPriceFeedRouter",
  "sourceName": "contracts/ChainlinkPriceFeedRouter.sol",
  "abi": [
    {
      "inputs": [],
      "stateMutability": "nonpayable",
      "type": "constructor"
    },
    {
      "anonymous": false,
      "inputs": [
        {
          "indexed": true,
          "internalType": "address",
          "name": "previousOwner",
          "type": "address"
        },
        {
          "indexed": true,
          "internalType": "address",
          "name": "newOwner",
          "type": "address"
        }
      ],
      "name": "OwnershipTransferred",
      "type": "event"
    },
    {
      "anonymous": false,
      "inputs": [
        {
          "indexed": false,
          "internalType": "bytes4",
          "name": "id",
          "type": "bytes4"
        },
        {
          "indexed": true,
          "internalType": "address",
          "name": "pair",
          "type": "address"
        }
      ],
      "name": "PairRegistered",
      "type": "event"
    },
    {
      "inputs": [
        {
          "internalType": "string",
          "name": "firstTokenName",
          "type": "string"
        },
        {
          "internalType": "string",
          "name": "secondTokenName",
          "type": "string"
        }
      ],
      "name": "getPriceFeedAddress",
      "outputs": [
        {
          "internalType": "address",
          "name": "",
          "type": "address"
        }
      ],
      "stateMutability": "view",
      "type": "function"
    },
    {
      "inputs": [
        {
          "internalType": "string",
          "name": "firstTokenName",
          "type": "string"
        },
        {
          "internalType": "string",
          "name": "secondTokenName",
          "type": "string"
        }
      ],
      "name": "getPriceForPair",
      "outputs": [
        {
          "internalType": "int256",
          "name": "",
          "type": "int256"
        }
      ],
      "stateMutability": "view",
      "type": "function"
    },
    {
      "inputs": [],
      "name": "owner",
      "outputs": [
        {
          "internalType": "address",
          "name": "",
          "type": "address"
        }
      ],
      "stateMutability": "view",
      "type": "function"
    },
    {
      "inputs": [
        {
          "internalType": "string",
          "name": "firstTokenName",
          "type": "string"
        },
        {
          "internalType": "string",
          "name": "secondTokenName",
          "type": "string"
        },
        {
          "internalType": "address",
          "name": "pricefeedAddress",
          "type": "address"
        }
      ],
      "name": "registerPair",
      "outputs": [],
      "stateMutability": "nonpayable",
      "type": "function"
    },
    {
      "inputs": [],
      "name": "renounceOwnership",
      "outputs": [],
      "stateMutability": "nonpayable",
      "type": "function"
    },
    {
      "inputs": [
        {
          "internalType": "address",
          "name": "newOwner",
          "type": "address"
        }
      ],
      "name": "transferOwnership",
      "outputs": [],
      "stateMutability": "nonpayable",
      "type": "function"
    }
  ],
  "bytecode": "0x608060405234801561001057600080fd5b5060006100216100c460201b60201c565b9050806000806101000a81548173ffffffffffffffffffffffffffffffffffffffff021916908373ffffffffffffffffffffffffffffffffffffffff1602179055508073ffffffffffffffffffffffffffffffffffffffff16600073ffffffffffffffffffffffffffffffffffffffff167f8be0079c531659141344cd1fd0a4f28419497f9722a3daafe3b4186f6b6457e060405160405180910390a3506100cc565b600033905090565b61108c806100db6000396000f3fe608060405234801561001057600080fd5b50600436106100625760003560e01c8063715018a6146100675780638da5cb5b14610071578063bc40d6431461008f578063d6cf9d44146100ab578063e1c9ec86146100db578063f2fde38b1461010b575b600080fd5b61006f610127565b005b610079610261565b6040516100869190610da8565b60405180910390f35b6100a960048036038101906100a49190610a94565b61028a565b005b6100c560048036038101906100c09190610b1d565b6105f2565b6040516100d29190610da8565b60405180910390f35b6100f560048036038101906100f09190610b1d565b61067c565b6040516101029190610dde565b60405180910390f35b61012560048036038101906101209190610a6b565b6106e3565b005b61012f61088c565b73ffffffffffffffffffffffffffffffffffffffff1661014d610261565b73ffffffffffffffffffffffffffffffffffffffff16146101a3576040517f08c379a000000000000000000000000000000000000000000000000000000000815260040161019a90610e39565b60405180910390fd5b600073ffffffffffffffffffffffffffffffffffffffff1660008054906101000a900473ffffffffffffffffffffffffffffffffffffffff1673ffffffffffffffffffffffffffffffffffffffff167f8be0079c531659141344cd1fd0a4f28419497f9722a3daafe3b4186f6b6457e060405160405180910390a360008060006101000a81548173ffffffffffffffffffffffffffffffffffffffff021916908373ffffffffffffffffffffffffffffffffffffffff160217905550565b60008060009054906101000a900473ffffffffffffffffffffffffffffffffffffffff16905090565b61029261088c565b73ffffffffffffffffffffffffffffffffffffffff166102b0610261565b73ffffffffffffffffffffffffffffffffffffffff1614610306576040517f08c379a00000000000000000000000000000000000000000000000000000000081526004016102fd90610e39565b60405180910390fd5b600073ffffffffffffffffffffffffffffffffffffffff168173ffffffffffffffffffffffffffffffffffffffff161415610376576040517f08c379a000000000000000000000000000000000000000000000000000000000815260040161036d90610e59565b60405180910390fd5b600073ffffffffffffffffffffffffffffffffffffffff1661042086868080601f016020809104026020016040519081016040528093929190818152602001838380828437600081840152601f19601f8201169050808301925050505050505085858080601f016020809104026020016040519081016040528093929190818152602001838380828437600081840152601f19601f820116905080830192505050505050506105f2565b73ffffffffffffffffffffffffffffffffffffffff1614610476576040517f08c379a000000000000000000000000000000000000000000000000000000000815260040161046d90610e19565b60405180910390fd5b600061050a86868080601f016020809104026020016040519081016040528093929190818152602001838380828437600081840152601f19601f8201169050808301925050505050505085858080601f016020809104026020016040519081016040528093929190818152602001838380828437600081840152601f19601f82011690508083019250505050505050610894565b90508160016000837bffffffffffffffffffffffffffffffffffffffffffffffffffffffff19167bffffffffffffffffffffffffffffffffffffffffffffffffffffffff1916815260200190815260200160002060006101000a81548173ffffffffffffffffffffffffffffffffffffffff021916908373ffffffffffffffffffffffffffffffffffffffff1602179055508173ffffffffffffffffffffffffffffffffffffffff167f939ba24e7cab2507350a41ebc86fc2689b32cedd5ff02ee87738d8fbc5874dc8826040516105e29190610dc3565b60405180910390a2505050505050565b6000806105ff8484610894565b905060016000827bffffffffffffffffffffffffffffffffffffffffffffffffffffffff19167bffffffffffffffffffffffffffffffffffffffffffffffffffffffff1916815260200190815260200160002060009054906101000a900473ffffffffffffffffffffffffffffffffffffffff1691505092915050565b60008061068984846105f2565b9050600073ffffffffffffffffffffffffffffffffffffffff168173ffffffffffffffffffffffffffffffffffffffff1614156106ca5760009150506106dd565b60006106d5826108c7565b905080925050505b92915050565b6106eb61088c565b73ffffffffffffffffffffffffffffffffffffffff16610709610261565b73ffffffffffffffffffffffffffffffffffffffff161461075f576040517f08c379a000000000000000000000000000000000000000000000000000000000815260040161075690610e39565b60405180910390fd5b600073ffffffffffffffffffffffffffffffffffffffff168173ffffffffffffffffffffffffffffffffffffffff1614156107cf576040517f08c379a00000000000000000000000000000000000000000000000000000000081526004016107c690610df9565b60405180910390fd5b8073ffffffffffffffffffffffffffffffffffffffff1660008054906101000a900473ffffffffffffffffffffffffffffffffffffffff1673ffffffffffffffffffffffffffffffffffffffff167f8be0079c531659141344cd1fd0a4f28419497f9722a3daafe3b4186f6b6457e060405160405180910390a3806000806101000a81548173ffffffffffffffffffffffffffffffffffffffff021916908373ffffffffffffffffffffffffffffffffffffffff16021790555050565b600033905090565b600082826040516020016108a9929190610d84565b60405160208183030381529060405280519060200120905092915050565b6000806000806000808673ffffffffffffffffffffffffffffffffffffffff1663feaf968c6040518163ffffffff1660e01b815260040160a06040518083038186803b15801561091657600080fd5b505afa15801561092a573d6000803e3d6000fd5b505050506040513d601f19601f8201168201806040525081019061094e9190610b89565b945094509450945094508395505050505050919050565b600061097861097384610eaa565b610e79565b90508281526020810184848401111561099057600080fd5b61099b848285610f89565b509392505050565b6000813590506109b281610ffa565b92915050565b6000815190506109c781611011565b92915050565b60008083601f8401126109df57600080fd5b8235905067ffffffffffffffff8111156109f857600080fd5b602083019150836001820283011115610a1057600080fd5b9250929050565b600082601f830112610a2857600080fd5b8135610a38848260208601610965565b91505092915050565b600081519050610a5081611028565b92915050565b600081519050610a658161103f565b92915050565b600060208284031215610a7d57600080fd5b6000610a8b848285016109a3565b91505092915050565b600080600080600060608688031215610aac57600080fd5b600086013567ffffffffffffffff811115610ac657600080fd5b610ad2888289016109cd565b9550955050602086013567ffffffffffffffff811115610af157600080fd5b610afd888289016109cd565b93509350506040610b10888289016109a3565b9150509295509295909350565b60008060408385031215610b3057600080fd5b600083013567ffffffffffffffff811115610b4a57600080fd5b610b5685828601610a17565b925050602083013567ffffffffffffffff811115610b7357600080fd5b610b7f85828601610a17565b9150509250929050565b600080600080600060a08688031215610ba157600080fd5b6000610baf88828901610a56565b9550506020610bc0888289016109b8565b9450506040610bd188828901610a41565b9350506060610be288828901610a41565b9250506080610bf388828901610a56565b9150509295509295909350565b610c0981610f01565b82525050565b610c1881610f13565b82525050565b610c2781610f3f565b82525050565b6000610c3882610eda565b610c428185610ef6565b9350610c52818560208601610f98565b80840191505092915050565b6000610c6b602683610ee5565b91507f4f776e61626c653a206e6577206f776e657220697320746865207a65726f206160008301527f64647265737300000000000000000000000000000000000000000000000000006020830152604082019050919050565b6000610cd1601883610ee5565b91507f7072696365206665656420616c726561647920657869737400000000000000006000830152602082019050919050565b6000610d11602083610ee5565b91507f4f776e61626c653a2063616c6c6572206973206e6f7420746865206f776e65726000830152602082019050919050565b6000610d51601483610ee5565b91507f496e76616c6964206665656420616464726573730000000000000000000000006000830152602082019050919050565b6000610d908285610c2d565b9150610d9c8284610c2d565b91508190509392505050565b6000602082019050610dbd6000830184610c00565b92915050565b6000602082019050610dd86000830184610c0f565b92915050565b6000602082019050610df36000830184610c1e565b92915050565b60006020820190508181036000830152610e1281610c5e565b9050919050565b60006020820190508181036000830152610e3281610cc4565b9050919050565b60006020820190508181036000830152610e5281610d04565b9050919050565b60006020820190508181036000830152610e7281610d44565b9050919050565b6000604051905081810181811067ffffffffffffffff82111715610ea057610e9f610fcb565b5b8060405250919050565b600067ffffffffffffffff821115610ec557610ec4610fcb565b5b601f19601f8301169050602081019050919050565b600081519050919050565b600082825260208201905092915050565b600081905092915050565b6000610f0c82610f49565b9050919050565b60007fffffffff0000000000000000000000000000000000000000000000000000000082169050919050565b6000819050919050565b600073ffffffffffffffffffffffffffffffffffffffff82169050919050565b6000819050919050565b600069ffffffffffffffffffff82169050919050565b82818337600083830152505050565b60005b83811015610fb6578082015181840152602081019050610f9b565b83811115610fc5576000848401525b50505050565b7f4e487b7100000000000000000000000000000000000000000000000000000000600052604160045260246000fd5b61100381610f01565b811461100e57600080fd5b50565b61101a81610f3f565b811461102557600080fd5b50565b61103181610f69565b811461103c57600080fd5b50565b61104881610f73565b811461105357600080fd5b5056fea264697066735822122012892647296ae769410c80ac7a9441db850ce856682a6c733cb69d17fed6e81164736f6c63430008000033",
  "linkReferences": {},
  "deployedLinkReferences": {}
}